:020000040000fa
:080000000002040000000000f2
:020000040000fa
:04000800f6020000fc
:020000040000fa
:04000c00f6020000f8
:020000040000fa
:04001000f6020000f4
:020000040000fa
:04001400f6020000f0
:020000040000fa
:04001800f6020000ec
:020000040000fa
:04001c00f6020000e8
:020000040000fa
:04002000f6020000e4
:020000040000fa
:04002400f6020000e0
:020000040000fa
:04002800f6020000dc
:020000040000fa
:04002c00f6020000d8
:020000040000fa
:04003000f6020000d4
:020000040000fa
:04003400e4020000e2
:020000040000fa
:04003800f6020000cc
:020000040000fa
:04003c00f6020000c8
:020000040000fa
:04004000f6020000c4
:020000040000fa
:04004400f6020000c0
:020000040000fa
:04004800f6020000bc
:020000040000fa
:04004c00f6020000b8
:020000040000fa
:04005000f6020000b4
:020000040000fa
:04005400f6020000b0
:020000040000fa
:04005800f6020000ac
:020000040000fa
:04005c00f6020000a8
:020000040000fa
:04006000f6020000a4
:020000040000fa
:04006400f6020000a0
:020000040000fa
:04006800f60200009c
:020000040000fa
:04006c00f602000098
:020000040000fa
:04007000f602000094
:020000040000fa
:04007400f602000090
:020000040000fa
:04007800f60200008c
:020000040000fa
:04007c00f602000088
:020000040000fa
:04008000f602000084
:020000040000fa
:04008400f602000080
:020000040000fa
:04008800f60200007c
:020000040000fa
:04008c00f602000078
:020000040000fa
:04009000f602000074
:020000040000fa
:04009400f602000070
:020000040000fa
:04009800f60200006c
:020000040000fa
:04009c00f602000068
:020000040000fa
:0400a000f602000064
:020000040000fa
:0400a400f602000060
:020000040000fa
:0400a800f60200005c
:020000040000fa
:0400ac00f602000058
:020000040000fa
:0400b000f602000054
:020000040000fa
:0400b400f602000050
:020000040000fa
:0400b800f60200004c
:020000040000fa
:0400bc00f602000048
:020000040000fa
:0400c000f602000044
:020000040000fa
:0400c400f602000040
:020000040000fa
:0400c800f60200003c
:020000040000fa
:0400cc00f602000038
:020000040000fa
:0400d000f602000034
:020000040000fa
:0400d400f602000030
:020000040000fa
:0400d800f60200002c
:020000040000fa
:0400dc00f602000028
:020000040000fa
:0400e000f602000024
:020000040000fa
:0400e400f602000020
:020000040000fa
:0400e800f60200001c
:020000040000fa
:0400ec00f602000018
:020000040000fa
:0400f000f602000014
:020000040000fa
:0400f400f602000010
:020000040000fa
:0400f800f60200000c
:020000040000fa
:0400fc00f602000008
:020000040000fa
:04010000f602000003
:020000040000fa
:04010400f6020000ff
:020000040000fa
:04010800f6020000fb
:020000040000fa
:04010c00f6020000f7
:020000040000fa
:04011000f6020000f3
:020000040000fa
:04011400f6020000ef
:020000040000fa
:04011800f6020000eb
:020000040000fa
:04011c00f6020000e7
:020000040000fa
:04012000f6020000e3
:020000040000fa
:04012400f6020000df
:020000040000fa
:04012800f6020000db
:020000040000fa
:04012c00f6020000d7
:020000040000fa
:04013000f6020000d3
:020000040000fa
:04013400f6020000cf
:020000040000fa
:04013800f6020000cb
:020000040000fa
:04013c00f6020000c7
:020000040000fa
:04014000f6020000c3
:020000040000fa
:04014400f6020000bf
:020000040000fa
:04020800f6020000fa
:020000040000fa
:04020c00f6020000f6
:020000040000fa
:04021000f6020000f2
:020000040000fa
:04021400f6020000ee
:020000040000fa
:04021800f6020000ea
:020000040000fa
:04021c00f6020000e6
:020000040000fa
:04022000f6020000e2
:020000040000fa
:04022400f6020000de
:020000040000fa
:04022800f6020000da
:020000040000fa
:04022c00f6020000d6
:020000040000fa
:04023000f6020000d2
:020000040000fa
:04023400f6020000ce
:020000040000fa
:04023800f6020000ca
:020000040000fa
:04023c00f6020000c6
:020000040000fa
:04024000f6020000c2
:020000040000fa
:04024400f6020000be
:020000040000fa
:04024800f6020000ba
:020000040000fa
:04024c00f6020000b6
:020000040000fa
:04025000f6020000b2
:020000040000fa
:04025400f6020000ae
:020000040000fa
:04025800f6020000aa
:020000040000fa
:04025c00f6020000a6
:020000040000fa
:04026000f6020000a2
:020000040000fa
:04026400f60200009e
:020000040000fa
:04026800f60200009a
:020000040000fa
:04026c00f602000096
:020000040000fa
:04027000f602000092
:020000040000fa
:04027400f60200008e
:020000040000fa
:04027800f60200008a
:020000040000fa
:04027c00f602000086
:020000040000fa
:04028000f602000082
:020000040000fa
:04028400f60200007e
:020000040000fa
:04028800f60200007a
:020000040000fa
:04028c00f602000076
:020000040000fa
:04029000f602000072
:020000040000fa
:04029400f60200006e
:020000040000fa
:04029800f60200006a
:020000040000fa
:04029c00f602000066
:020000040000fa
:0402a000f602000062
:020000040000fa
:0402a400f60200005e
:020000040000fa
:0402a800f60200005a
:020000040000fa
:0402ac00f602000056
:020000040000fa
:0402b000f602000052
:020000040000fa
:0402b400f60200004e
:020000040000fa
:0402b800f60200004a
:020000040000fa
:0402bc00f602000046
:020000040000fa
:0402c000f602000042
:020000040000fa
:0402c400f60200003e
:020000040000fa
:0402c800f60200003a
:020000040000fa
:0402cc00f602000036
:020000040000fa
:0402d000f602000032
:020000040000fa
:0402d400f60200002e
:020000040000fa
:0402d800f60200002a
:020000040000fa
:0402dc00f602000026
:020000040000fa
:0402e000f602000022
:020000040000fa
:0402e400f60200001e
:020000040000fa
:0402e800f60200001a
:020000040000fa
:0402ec00f602000016
:020000040000fa
:0402f000f602000012
:020000040000fa
:0402f400f60200000e
:020000040000fa
:0402f800f60200000a
:020000040000fa
:0402fc00f602000006
:020000040000fa
:04030000f602000001
:020000040000fa
:04030400f6020000fd
:020000040000fa
:04030800f6020000f9
:020000040000fa
:04030c00f6020000f5
:020000040000fa
:04031000f6020000f1
:020000040000fa
:04031400f6020000ed
:020000040000fa
:04031800f6020000e9
:020000040000fa
:04031c00f6020000e5
:020000040000fa
:04032000f6020000e1
:020000040000fa
:04032400f6020000dd
:020000040000fa
:04032800f6020000d9
:020000040000fa
:04032c00f6020000d5
:020000040000fa
:04033000f6020000d1
:020000040000fa
:04033400f6020000cd
:020000040000fa
:04033800f6020000c9
:020000040000fa
:04033c00f6020000c5
:020000040000fa
:04034000f6020000c1
:020000040000fa
:04034400f6020000bd
:020000040000fa
:10040000ef9320000eff27000e018800000000007f
:10041000000020000000e000020032000001200087
:10042000200288000e000700809f210001002000ac
:10043000810f700001003200220007000000200040
:100440000000e00002003200000002000000000096
:100450003c180200000000000040da000000fe002e
:100460004440a900c00320000000e0000300320067
:1004700000002000a00188004440a8000000060001
:10048000f03fb1000180b10006003500ee03090025
:1004900000000000403fb1000180b100fbff3d00c3
:1004a0001000b000203fb0000200350000800900bd
:1004b00000000000000006008a1f78008b1f7800f3
:1004c0000000060091018800800478000000eb0025
:1004d0001a003700e284440032a0b4009905ba0043
:1004e000e284440032a0b4009906ba00e2844400d9
:1004f00032a0b4000006eb00476fde00fd07b2003b
:10050000636ce10003003a00ebff07000000eb0022
:100510000a003700606ce10004003a00005deb0067
:100520008b05e900fdff3e00040037006168e10033
:10053000010032000086eb000b00070019c7ba006b
:100540001905ba000e04e00003003a000a00e000ba
:10055000e0ff3a0000000600fe07b2009e0188009e
:100560008a047800f5ff3700395dba008b05e90091
:100570000c003200295dba008b05e900080032004a
:100580000c00e00003003a00e284440032a0b40012
:10059000f5ff370019ddba008b05e900faff3a00d4
:1005a0008904e800e184440032a0b40000000600a1
:1005b0007003040000000000a40b04000000000011
:1005c0000000040000000000801f78000000fa0016
:1005d00010c0b30000e8b7008460a90005e1a900dd
:1005e0000080fa004f007800004006000040da006a
:1005f0000000fe00889fbe008a1f7800000478007b
:100600000800e0000d003a00a887200070054400b3
:100610008004eb00580078000000e0000400320085
:10062000f4ff07000000e00001003d008084eb00c3
:100630008a0f5400f7ff3a0025003700000022001f
:10064000180060008004eb0021003200a804900034
:100650000f00370009015100384090000000fb00f6
:1006600089007800c20507000000e00007003c0098
:10067000280090004004980060049800500c9800f6
:100680001890a0008084eb001100370080844400a3
:1006900048019000828f5400eeff3900280090003e
:1006a000400498009800780002c020000281600099
:1006b00001003a003800900001e8a3000200320077
:1006c0006004980001003700500c98008004eb0093
:1006d000090078004f0578004f04be0000000600b6
:1006e000889fbe0000047800010078008204780032
:1006f000880178000901780011002000150007002a
:10070000890f5000010032000004eb00080078005f
:100710004f04be00000006000000fa00e881570008
:100720004fb99700c1822000003720005d0007000c
:100730000080fa0000000600800178000200370007
:10074000815978000201e9000200e000fcff3a0054
:1007500000000600889fbe008a9fbe008c9fbe00de
:100760008e1f7800000678000104780002007800ef
:10077000830478000881b900020778000200e000d5
:10078000420032000800e00041003200820578009b
:10079000c900900069009000808f5000040039006b
:1007a00009007800f10007000000e0002900350092
:1007b00000402000190060000a0032000b017800a0
:1007c000a10020000c0078002f01070080067800af
:1007d0000d00e00006003200610516000a854600a3
:1007e000040037000b0578008006eb00010037009d
:1007f0000b05780049009000e900900080805000cf
:100800008a8f500002003100010578008006eb005d
:100810000a0178008c007800250107008a855500c0
:10082000490090000a004000c00498000d00e0005c
:1008300004003200090078006eff07000000e000ad
:1008400004003a000b00e000020032000a064600f5
:10085000cfff370000802000190060000200320046
:100860000900780063ff070000c020001900600045
:100870000200320049009000e00498008b05570008
:10088000110009008885d800010037000000eb0046
:100890004f0778004f06be004f05be004f04be0054
:1008a000000006006200fa00889fbe008a1f7800e0
:1008b0000005780081047800020478008300780045
:1008c00080f92f000f004000000107009a979f0059
:1008d000a9979f000000eb00b09f9f001885fb00c8
:1008e0008a04fb000a05ea004f55de005002200092
:1008f000808f54000d003200e10f55000b003a00cc
:100900000a017800880078002f9097009f91970047
:1009100003000100a0979f000000e0008e0032005d
:100920003f9897000000e800b09f9f000a04440031
:1009300050022000808f5400040032000900e000c3
:10094000e6ff3a003f989700840037000000eb0074
:10095000909f9f00809f9f00f0979f00e0979f00cf
:10096000d0979f00c0979f0007003700c1922000da
:10097000010050000000400001922000610078005a
:10098000df98970001007000d09f9f0088047800d6
:1009900009047800384578008a00fb00c0922000e6
:1009a000cc0007000000e000f0ff3a00a1c2b30055
:1009b000814f55000e003a00cf8897000180e90072
:1009c000c08f9f0010007800c09f9f000000e000d3
:1009d00005003d000000ea00c09f9f005f9897005f
:1009e0000020a000d09f9f000904e8000f003700fe
:1009f000c09f9f000000eb0005003700f2ff2700ba
:100a0000820f5000020032006a01b90002804000eb
:100a10000904780088047800b900fb000103b100e4
:100a2000e98f5000f5ff3600c09f9f00e0c2b30081
:100a3000984f1000020032000080eb0019003700d0
:100a4000a0c2b300d84f100007003a00cf8897002b
:100a50000180e900c08f9f0010007800a09f9f00d8
:100a60000804e800100037000000eb00a09f9f0082
:100a70008800780005003700f3ff2700830f50003f
:100a8000020032006a02b90004004100010478004b
:100a9000880078003101fb000203b100e90f51002a
:100aa000f5ff3600a09f9f00984478008900fb0066
:100ab00080912000870007000000e0000200320063
:100ac0000804e800010037008044eb00c97f9f0064
:100ad00080c6b30080cf540004003a0098cf1400c1
:100ae0000a003a006640500006003700c0c6b30056
:100af00080cf540005003a0098cf140003003a005c
:100b000065404000c07f9f000804e8001801fb001a
:100b1000e3fb2f008f81410081f92f008f8040007f
:100b2000a0f92f000f004000320107000000e00094
:100b300009003a00e1fb2f008f804000a0f92f0050
:100b40000f0040006f0007000000e00002003500c9
:100b50000804e80061ff37000080eb004f057800d3
:100b60004f04be000080fa0000000600889fbe000f
:100b70008a1f780000047800c80090006801900087
:100b80000000eb00828f50003c0039001800780014
:100b90002200290002016000e20f5100070032002c
:100ba000012024000000e00001003d0001202000a1
:100bb000008c70000080eb0030003700020026003f
:100bc00002006000820f500009003a0038009000d7
:100bd000808f5000060039000800780085fe07006d
:100be000800078000080eb000100e00023003a0064
:100bf0001805780000c020000000650018003a00c9
:100c0000a80490006002200008004000808f54007b
:100c100013003a000020200054020700200498002e
:100c20000000e00005003a002904980049049800fb
:100c30008904e80039049800080037000a60a00021
:100c40000a0c7800400498000120200080804000b9
:100c500031049800400c9800500c98006f02070077
:100c6000280090005004980038009000600498001c
:100c700000002600180c70000000eb004f05780003
:100c80004f04be000000060003003700b0cf100084
:100c9000050032000201e900800178000200e00056
:100ca000faff3a000000050003007800000006008b
:100cb0008001780002003700b15978000201e90094
:100cc0000200e000fcff3a00000006000108780086
:100cd00000000600020037000304e00006003200b6
:100ce0000001780002007800b041780081cf510007
:100cf000f9ff3a00010037000001eb000200780024
:100d0000000006000400fa00889fbe008a9fbe0013
:100d10008c1f78000004780001067800f80d900020
:100d20007800900080855500080890008085550067
:100d3000180890008085550028089000808555008f
:100d4000380890008085550048089000808555003f
:100d50000002220090bf9f0000032300a0bf9f005d
:100d6000081090000028a30015003a000b00e000d6
:100d7000130034000b0578008a047800e20f550058
:100d80000100360029002000c80190000901780008
:100d9000ee805700580090000300010050049800b6
:100da0000000e0008c00320068089000090040005c
:100db000600c9800090555004240a900eeff3c0078
:100dc000780190000200e0000c003400c80190009f
:100dd0008c00780058009000030001005004980037
:100de0008080eb000000e0007c003200e80890000a
:100df0007800900000804000600c9800880c900003
:100e00000900e0001100340009057800e28f540069
:100e1000010036002a002000c80190000a01780075
:100e2000ec80570058009000030001005004980027
:100e30000000e00068003200680890000a004000ee
:100e4000600c98008a845400edff37001809900068
:100e50000200e0000c003400c8019000e80090009f
:100e60005800900003000100500498008080eb00bf
:100e70000000e00059003200e808900018089000d7
:100e800000804000600c9800a80c90000900e00071
:100e90001100340009057800e28f5400010036008b
:100ea0002a002000c80190000a017800ec80570059
:100eb0005800900003000100500498000000e0007a
:100ec00045003200680890000a004000600c98005d
:100ed0008a845400edff3700380990000200e000da
:100ee0000e003400e8009000180890008080400058
:100ef000c8019000580090000300010050049800c1
:100f00008080eb000000e00034003200e808900030
:100f10003808900000804000600c9800c80c9000d9
:100f20000900e0001100340009057800e28f540048
:100f3000010036002a002000c80190000a01780054
:100f4000ec80570058009000030001005004980006
:100f50000000e00020003200680890000a00400015
:100f6000600c98008a845400edff37000810900050
:100f70008000eb000028a300180032000b00e00006
:100f8000160034008b04780009057800e28f5400c5
:100f9000010036002a002000c80190000a017800f4
:100fa000ee805700580090000300010050049800a4
:100fb0000000e00008003200680890000a004000cd
:100fc000600c98008a8454004240a900eeff3c0067
:100fd0008000eb00010037008080eb00010078000a
:100fe0004f0678004f05be004f04be000080fa0097
:100ff00000000600889fbe008a1f78000004780069
:10100000e0c6b300804f5100c100320015003c0023
:101010006b405000804f5100240032000a003c0019
:1010200070405000804f5100fa003200654040008f
:10103000804f51006800320050c2b300804f510011
:101040000b013a000701370040c6b300804f510042
:101050001b00320065404000804f510004013a00ff
:101060001700370030c7b300804f5100e90032004d
:1010700007003c0064405000804f51005600320091
:101080000040e800804f5100f9003a00d3003700db
:1010900050c7b300804f51004f0032006340400002
:1010a000804f5100f2003a004b0037001181e900f7
:1010b000820878007800900012417800ea0037003a
:1010c00028609000c4c6b300844f500007003a0067
:1010d0001102780064005200800878001002be00ff
:1010e0004fabde00860378001100370014c7b30051
:1010f000844f500003003200a4c6b300844f500058
:1011000006003a001102780068005200800878005a
:101110003002be002003be00050037001180e90048
:101120008008780010027800cfa2de00612bb900a1
:10113000049cbe000694be002860900081c6b300e7
:10114000814f50000d00320021c6b300814f500086
:1011500004003a000402fb00cfa2de00612bb900bc
:101160000800370041c7b300814f50000300320030
:10117000e6c04000814f500004003a00cfa2de00dc
:10118000612bb900049cbe000694be003802be006c
:101190002803be0078009000d1c2b300e00f5200d7
:1011a000e08f5a00e00f5b00e08f5b000800350025
:1011b000881090000118a30002003200b1c2b300f1
:1011c000030037000108a3004c00320001c2b30045
:1011d000817178004700370028609000c4c6b300d2
:1011e000844f500006003a0011027800640052005b
:1011f000800878001002be006033b800110037008c
:1012000014c7b300844f500003003200a4c6b300db
:10121000844f500006003a00110278006800520026
:10122000800878003002be002003be0005003700b1
:101230001180e90080087800100278008002eb003d
:101240006033b800049cbe000694be002860900085
:1012500081c6b300814f50000d00320021c6b3009b
:10126000814f500004003a000482fb008002eb0032
:101270006033b8000800370041c7b300814f500009
:1012800003003200e6c04000814f500004003a00e5
:101290008002eb006033b800049cbe000694be00e0
:1012a000081090000038a300140032003802be007d
:1012b0002803be00e00f5200e08f5a00e00f5b00f1
:1012c000e08f5b000d00320080c7b300804f5100fb
:1012d0000300320080c5b300804f510007003a0080
:1012e0007800900001c3b300817178000000e8002d
:1012f000827178000000e800700498007800900087
:101300008081410063049800824078003e003700ed
:1013100028619000c3c6b3001180e900834f5100db
:10132000220032000a003c00e4c15100834f51000a
:101330002500320083c1e800834f510013003200c2
:10134000e8c15100834f51001e003a000a003700e7
:1013500043c7b300834f51001b003200e6c1410078
:10136000834f510018003200e9c15100834f5100f2
:1013700014003a000500370080087800100078005b
:10138000485c9000084878004100370080087800e9
:1013900010007800680a9000cfa2de00612bb9002f
:1013a0000498be000690be0039003700800878001f
:1013b0001000780068099000cf91de000288be001e
:1013c000330037001180e9008008780010007800b1
:1013d000680c9000080878002d0037001180e900a3
:1013e0008008780010027800cfa2de00612bb900df
:1013f000049cbe000694be007800900080814100ed
:101400006304980081c7b30008007800d900070082
:101410001f0037001180e90080087800100578006f
:101420006a049800d80c90000900e00004003d0018
:101430000a007800fe0107008004780007003700ea
:10144000090178008000eb000a0078000efe07001a
:101450000000e000010032008a045000190c9800de
:101460000b0037007800900082717800060037008a
:1014700078009000808141000204e00001003a0001
:1014800052c2b300824978000000e800700498005e
:101490000000eb004f0578004f04be00000006007e
:1014a000889fbe0000047800914980000100e000a0
:1014b00002003200010078000d003700a1498000d1
:1014c0004093200004003700910f5400250036009f
:1014d0000180e800910090000100e000faff3a006e
:1014e00010003700920f54001e0036000280e80002
:1014f000100178000200e000faff3a0011017800c4
:10150000a14980004093200004003700910f54004f
:10151000140036000180e80091009000828f500096
:10152000faff3a00c9498000888f54000100310059
:101530008804780009007800c30107000000e0007b
:1015400004003a00888f5400050032008904d1005d
:10155000f5ff370009187800c5010700d2ff3700f2
:101560000000eb004f04be0000000600881f78005a
:10157000630440000800a1008000eb00800f5400cd
:1015800021003600e30f540001003e004800200017
:1015900008007800c2ff07008000eb000000e000b8
:1015a00019003200900078009101780064815100a8
:1015b000880f5100030031001101900002087800eb
:1015c0000700370008814000020878009101900070
:1015d00013019800100178001109140088087800a0
:1015e000100178000000eb000200e000040032006f
:1015f000920190000300e000010032000280e80048
:10160000904988008180e800010078004f0478004c
:101610000000060040ba2000c7013700881f78008c
:10162000a89320001804e00003003a00f9ff070027
:1016300020c0b300004c78004f0478000000060082
:10164000889fbe000004780008007800e9fb0700ce
:1016500080047800000420001800600002003200be
:1016600028009000820107000000eb002004980091
:10167000384090000004e000050035000000fb0049
:10168000ea0107000000e000010032008084eb0066
:10169000181090000000e00008003200ee01070082
:1016a0000000e000010032008084eb001810900080
:1016b0006f0107000000eb001014980000082000e4
:1016c000180060000f003200a18720000000eb002e
:1016d000d10f140005003a0000004000c18720002f
:1016e000008040000008eb00030037000000e80025
:1016f000e80f5000f6ff3a00080078005c01070090
:101700000e003700000c780000c0eb003044980059
:101710006002200008004000200498004004980067
:1017200050049800400c980060049800500c9800f9
:101730007004980076004400000c980009007800be
:101740004f04be0000000600889fbe00c88820002d
:10175000f0045400480078000000e000010032006e
:10176000b7ff0700890f5400faff3a004f04be008c
:1017700000000600fc874700889fbe008a9fbe00cd
:101780008c9fbe008e1f78000006780080c5b300d5
:1017900080cf50000a0032007740400080cf5000d8
:1017a0000a0032006940400080cf50000b00320038
:1017b0007090200080bf9f00ae0020000a0037001c
:1017c000628f200082bf9f000600370073902000c8
:1017d00083bf9f008e00200003003700749020001c
:1017e00084bf9f000e0120003c02be002c03be00ff
:1017f0000605be000404be0040c6b30080cf500002
:10180000030032006540400080cf50000b003a00da
:10181000e00f5200e08f5a00e00f5b00e08f5b00aa
:1018200006003d006000b8006011b80004045000dc
:10183000858458000605590087855900e80f570030
:101840000400320040002000f00f570038003a003a
:101850000100370030002000e00f5400e08f5c00f2
:10186000e00f5d00e08f5d0004003a00dc089000ae
:101870008d0120000100e000060032008e00e9002a
:10188000888060008fba9700e5c07800f1ef9f0074
:101890007d012000800078008100e9000500330010
:1018a0008b05d1000a85d3008984d3000884d30036
:1018b000f9ff3700089ebe000a96be0012003700ee
:1018c0008d06e9008e00e900848060000fb9970062
:1018d000e2c1780082fd2f000f01410003f17e007c
:1018e000800078008100e900050033008783d10083
:1018f0000683d3008582d3000482d300f9ff37002a
:10190000049ebe000696be003c02be002c03be0034
:10191000e00f5200e08f5a00e00f5b00e08f5b00a9
:101920008b0034000d00e000e5ff3c00880037002c
:101930002c60900081c6b300814f50000b00320034
:1019400006003c000004e00008003200e6c0500041
:10195000814f50004e003a0004003700c1c6b3006a
:10196000814f50004a003a00210037000800e00093
:1019700004003a005c0890008d0120000000e000a7
:1019800006003200110009000e84d8000fb997003c
:10199000e2c07800f1ef9f007d01200011000900f6
:1019a0000e84d8000a003700110009000e04d80088
:1019b0008d06e9000e81b900020454008fb897002b
:1019c00061417c0081fd2f008f80400082f07e000d
:1019d000000478000800e000020032000d00e00082
:1019e000f1ff3c00cfc4de00614db9002500370097
:1019f000e00f5400e08f5c0004003a005c089000a7
:101a00008d0120000000e000070032006171b90084
:101a10000800be00890207008fb99700e3417800f3
:101a2000f3ef9f007d0120006171b9000800be0046
:101a3000500207000b0037006171b9000800be00ba
:101a4000810207008d06e90000f1b900020454008c
:101a50000fba9700e4427c0084fd2f000f02420081
:101a600005f27e000004be00e00f5000e08f580039
:101a7000020032000d00e000efff3c004fcdde0021
:101a80008a057800089ebe000a96be003000370026
:101a9000e00f5400e08f5c00e00f5d00e08f5d0020
:101aa00004003a005c0890008d0120000000e00076
:101ab000090032006172b900612bb9000800be0054
:101ac0000a01be00a60107000fba97006442780021
:101ad000f4ef9f007d0120006172b900612bb90015
:101ae0000800be000a01be00960107000d00370085
:101af0006172b900612bb9000800be000a01be0086
:101b00009b0107008d06e90000f2b90004045400af
:101b10008fba970065427c0085fd2f008f824200be
:101b200084f27e00009ebe000296be003c04be0011
:101b30002c05be00e00f5400e08f5c00e00f5d005c
:101b4000e08f5d00020034000d00e000e8ff3c0083
:101b5000e80f570010003a000c1090000038a30066
:101b60000d003200f78f560006003e0085fd2f0065
:101b70008f824200e5c07e0000c3b30080cf5000da
:101b8000050032008d06e90002c3b30081fd2f007d
:101b90008f80400082f07e0078811600120e98003f
:101ba0006c00900083fd2f008f8141008d804100eb
:101bb0003ffc07001c089000dc089000810f5000db
:101bc00006003d0000805000000e98000c109000b0
:101bd0000040a100001698000f0037000100e0004f
:101be0000d003d008c109000f4806000f08f5000dc
:101bf00009003a007c099000fc009000810051002f
:101c00000c09900082805000008050004240a900e2
:101c100001003400000e98004f0778004f06be0008
:101c20004f05be004f04be00cf01b100000006000a
:101c300080007800010178003104e000fdff3a00e7
:101c40000000510000000600800078000000eb005a
:101c50000100e00005003400010078008700070063
:101c6000e10f400001003a000000eb000000060018
:101c70000000e0002f003200c0017800e38f510027
:101c80002c0036000308a3002a003a00a149800076
:101c90000100e00002003200810f5000040031001a
:101ca00011009800a04988001600370082007800d3
:101cb000110190000200e00002003200800f51008c
:101cc000faff39001102780084824000850f50002d
:101cd00018003900808f520003003a008308420048
:101ce00001007800070037000200e0000300320026
:101cf00083014000830f51000e003900120098004c
:101d000090009800900090000100e000090032006f
:101d100010014000828f500006003a0022932000fc
:101d20000009eb00100178001108410091009000bb
:101d30001100980000000600010020000100e000f2
:101d400008003200010080000100e00005003200c0
:101d50008100e900010088008180400002008000cd
:101d600000b178000000060000c0da0000000600a4
:101d70000a00fa00e20f50001f003e00b049800048
:101d8000e10f500006003200802320004523200090
:101d900023232000042320000000e00004003a0078
:101da000802220004522200023222000042220003f
:101db000060028009403630002003a000708780038
:101dc000140a730013a8a30001003a0013a0a00096
:101dd00002007800050037001388a300feff3200e0
:101de0003102fb00840a78000000e9000000e000f6
:101df000f9ff3a000800370033002000b3bf9f000e
:101e0000c0bf9f00d1bf9f00e2bf9f006a80570004
:101e1000d5ff07006fb99700020078000080fa0034
:101e20000000060000c0da00000006000a00fa0008
:101e300011002000b1bf9f00c0bf9f006a80570003
:101e4000f8ff07004fb897000080fa000000060076
:101e500000c0da00000006000a00fa00510020006d
:101e6000b1bf9f00c0bf9f006a805700f8ff070006
:101e70005fb897000080fa0000000600889fbe004f
:101e800080047800e04980000000e00004003a008f
:101e90000e0007000084eb000000e00008003500a1
:101ea000e84980000900e000050032000900440014
:101eb000060007000000e00001003d000084eb0088
:101ec000080078004f04be00000006008000780083
:101ed0000100e00003003a0000002000e049880013
:101ee000000005000080eb0002002000828f5000ff
:101ef00002003e00e14988000000eb0000000600ff
:101f0000889fbe008a9fbe008c1f78000006eb00f1
:101f1000e00f5000e08f5800e00f5900e08f5900ab
:101f200007003d006044b8006055b8000000540050
:101f300081805c0002015d0083815d001c00200047
:101f4000e00f5200e08f5a00e00f5b00e08f5b0073
:101f500007003d006044b8006055b800040254001a
:101f600085825c0006035d0087835d000c00a20093
:101f7000100107000c00e000060032006022b800eb
:101f80006033b8000000520081805a0002015b00fb
:101f900083815b004f0678004f05be004f04be00f2
:101fa00000000600889fbe008a9fbe0030044200e9
:101fb000b0844a0030054b0090854b006000b100b2
:101fc0000898be000a90be00c10007000200310060
:101fd000680040001008e8004f05be004f04be0036
:101fe00000000600889fbe008a9fbe003004be002d
:101ff0002005be000418540005985c0006185d001a
:1020000007985d0011002000b100070001003900b1
:102010008000eb00108810004f05be004f04be008a
:10202000000006001200fa00889fbe008a9fbe00d2
:102030008c9fbe00e0b79f00f1b79f0082bf9f005a
:1020400093bf9f000605be000404be000000eb0025
:10205000d0b79f00c0b79f00b0b79f00a0b79f0048
:1020600090b79f000006eb005fb19700cfb09700dc
:10207000820141003fb097000200e00004003d00f3
:10208000980007007e805700c6ff07000300370056
:10209000940007007e805700d2ff0700dfb697004c
:1020a0000d00e0000c0035006fb29700ffb2970002
:1020b0000fbb97009fbb970010002000010020007d
:1020c0006011b80000027200818272000203730086
:1020d00083837300580007000c06e8000104200009
:1020e000810f5600e0ff3a000d00e00004003d00c3
:1020f0000802be000a03be007e805700a9ff070049
:102100005fa897000000e00005003a001fb29700aa
:10211000afb297003fb39700cfb3970046000700d8
:102120006fb09700ffb097000fb997009fb9970065
:102130004f06be004f05be004f04be000080fa00ef
:1021400000000600881f780018002000881f780013
:10215000b4ff07008f87e9004f04780000000600f5
:10216000801feb00afff07008f87e900000006002b
:10217000889fbe008a9fbe003d00070007003d000b
:1021800040000700180020004500070008003d003f
:102190002b0007000004eb00050037000004eb00f3
:1021a0003f00070002003d00250007001800200046
:1021b000e4ff07000800e000010032003d000700d6
:1021c0004f05be004f04be0000000600889fbe0001
:1021d0008a9fbe008c1f78002500070008003d0084
:1021e000280007001c0020000820e10009a8e100e9
:1021f0000ab0e1000bb8e10007003d000500370020
:102200000006eb002600070003003d006044b80014
:102210006055b8000c000700d1ff07000c00e0007b
:1022200001003200230007004f0678004f05be0072
:102230004f04be0000000600080007000000060072
:102240006044b8006055b8000402540085825c0008
:1022500006035d0087835d0000000600a4b79f00b1
:10226000b5b79f00c6b79f00d7b79f000000060014
:10227000e00f5000e08f5800e00f5900e08f590048
:10228000000006006044b8006055b800000054002b
:1022900081805c0002015d0083815d00000006001a
:1022a000e00f5200e08f5a00e00f5b00e08f5b0010
:1022b000000006006022b8006033b8000000520041
:1022c00081805a0002015b0083815b0000000600f0
:1022d0000440e10005c8e10006d0e10007d8e100b4
:1022e000000006004f09de0082817100b3b79f0035
:1022f0004f01de008180400082807000a1b79f0006
:102300008fb097004f09de0000004000020070000f
:1023100090b79f007fa897004f01de0081804000aa
:102320008280700081b79f000d0007004f3ade00e9
:102330000000400004007000f0af9f00080007009c
:102340000402420085824a0006034b0087834b004b
:10235000c2ff07000802be000a03be00000006001c
:102360002fb29700bfb297004fb39700dfb397002b
:10237000000006006022b800060220000000d00025
:102380008180d2000482d2008582d2000000a000a9
:102390000202520083825a0003003100020242000e
:1023a00083824a000000a1000603e900f3ff3a001f
:1023b00000000600889fbe008a9fbe008c9fbe0062
:1023c0000404b8000506b8008904460060854e0084
:1023d0000606b8000a054600e0854e000706b8006c
:1023e0008b054600040eb800890446000a854e009d
:1023f000e0854d00050eb8000a0546008b854e00ad
:10240000060eb8008b0546000416b8000a05460003
:102410008b854e000516b8008b054600041eb800db
:102420008b0546000800be000a01be004f06be0034
:102430004f05be004f04be0000000600cdff0700a0
:102440000400be0000000600839f68000100e00059
:1024500002003d0060001000e08018000300e00072
:1024600002003d0060011100e0811900c1ff07007a
:102470004f00e00002003b0060001000e080180008
:102480000000060042118800001188001111880028
:042490000000060042
:020000040000fa
:10249400253300006400000043520000433a00006a
:1024a400203000007825000078000000257300002b
:1024b400002d00002d2000004c610000622000006f
:1024c40033200000285200004d2000007632000026
:1024d4002e350000292000002d2d000000520000a0
:1024e400656300007620000066610000696c0000ee
:1024f4003a20000020300000202000007469000011
:082504006d650000730000008a
:020000040000fa
:10250c000000fa00620020000140200000002800ba
:10251c00d9ff070000802e0031002000d5f70700fe
:10252c000080fa00000006000200fa00004f78005c
:10253c00010037000000000023c2bf0062406000b1
:10254c000004e000fbff3a001e80fb002011880015
:10255c00010037000000000023c2bf006140600092
:10256c000004e000fbff32000080fa0000000600cf
:10257c000600fa0010079800414798000040eb0055
:10258c00004f7800070037001e80fb0080007800a9
:10259c001e0090000080400010407800e2ff070011
:1025ac001e4fe8004e4090009e4f1000f6ff390081
:1025bc000080fa00000006000200fa00004f7800cc
:1025cc00c0c7b300d8ff07001e407800d6ff070035
:1025dc000080fa00000006000000fa00c0c7b3003b
:1025ec00d1ff07000040eb00cfff07000080fa008e
:1025fc00000006000200fa00000f7800c0c7b3000c
:10260c00c9ff070010c0b300c7ff07001e00780009
:10261c00c5ff07000080fa00000006000200fa0067
:10262c00000f7800c0c7b300bfff070020c0b30085
:10263c00bdff07001e007800bbff07000080fa00fa
:10264c00000006000800fa00000f7800110798003f
:10265c002207980033079800c0c7b300b2ff0700e9
:10266c0030c0b300b0ff07001e007800aeff0700bb
:10267c001e009000acff07002e009000aaff070080
:10268c003e009000a8ff07000080fa000000060042
:10269c000000fa00c0c7b300a3ff070040c0b3009e
:1026ac00a1ff07000080fa00000006000800fa00f5
:1026bc00000f780011079800220798003307980044
:1026cc00c0c7b30098ff070050c0b30096ff0700c7
:1026dc001e00780094ff07001e00900092ff070078
:1026ec002e00900090ff07003e0090008eff070028
:1026fc000080fa00000006000000fa00c0c7b3001a
:10270c0089ff070060c0b30087ff07000080fa0054
:10271c00000006000200fa00000f78001e00e00026
:10272c0002003c0010002000000f78006000200028
:10273c009e0f10000200340060002000000f780093
:10274c00c0c7b30078ff070070c0b30076ff070066
:10275c001e00780074ff07000080fa0000000600dd
:10276c000000fa00c0c7b3006fff070080c0b300c1
:10277c006dff07000080fa00000006000200fa005e
:10278c00000f7800c0c7b30067ff0700a0c0b300fc
:10279c0065ff07001e00780063ff07000080fa0049
:1027ac00000006000800fa00000f780011079800de
:1027bc002207980033079800c0c7b3005aff0700e0
:1027cc00b0c0b30058ff07001e00780056ff07008a
:1027dc001e00900054ff07002e00900052ff0700cf
:1027ec003e00900050ff07000080fa000000060039
:1027fc000a00fa00000f78001107980022079800d1
:10280c003307980044079800c0c7b30046ff070081
:10281c00c0c0b30044ff07001e00780042ff070051
:10282c001e00900040ff07002e0090003eff0700a6
:10283c003e0090003cff07004e0090003aff07005e
:10284c000080fa00000006000a00fa001007980049
:10285c00210798003207980043079800c0c7b300bf
:10286c0031ff0700d0c0b3002fff07001e009000ff
:10287c002dff07002e0090002bff07003e0090005c
:10288c0029ff07000000eb00000f7800070037005d
:10289c001e007800800078004e0090000080400000
:1028ac001040780020ff07001e0fe800f001200008
:1028bc009e0f1000f6ff34000080fa0000000600a6
:1028cc000a00fa00000f7800110798002207980000
:1028dc003307980044079800c0c7b30012ff0700e5
:1028ec00f0c0b30010ff07001e0078000eff0700b9
:1028fc001e0090000cff07002e0090000aff07003e
:10290c003e00900008ff07004e00900006ff0700f5
:10291c000080fa00000006000600fa00000f7800a4
:10292c001107980022079800c0c7b300fefe0700ed
:10293c0000c1b300fcfe0700000820009e0f100031
:10294c000300340000c8b300f7fe0700070037008f
:10295c001e00e00003003d000040eb00f2fe07000b
:10296c00020037001e007800effe07009e0090006a
:10297c0000042000808f50000300340000c4b3001a
:10298c00e9fe0700080037001e0090000000e00080
:10299c0003003d000040eb00e3fe0700020037009f
:1029ac001e009000e0fe07002e009000e10f50008a
:1029bc00060032002e0090000000e0000300320000
:1029cc0010c0b300d8fe0700020037002e009000a4
:1029dc00d5fe07000080fa00000006000a00fa008d
:1029ec00000f780011079800220798003307980011
:1029fc00044f9800c0c7b300cbfe070020c1b30042
:102a0c00c9fe07001e007800c7fe07001e009000dc
:102a1c00c5fe07002e009000c3fe07003e0090008c
:102a2c00c1fe07000e489000bffe07000080fa00b0
:102a3c00000006000000fa00c0c7b300bafe070091
:102a4c0040c1b300b8fe07000080fa000000060089
:102a5c000000fa00c0c7b300b3fe070050c1b300ba
:102a6c00b1fe07000080fa00000006000e00fa001c
:102a7c001007980021079800320798004307980028
:102a8c005407980065079800c0c7b300a6fe07005e
:102a9c0060c1b300a4fe07001e009000a2fe070058
:102aac002e009000a0fe07003e0090009efe070046
:102abc004e0090009cfe07005e0090009afe0700fe
:102acc00ce0090005e0090000088b90082002000cb
:102adc00110009000200d800000f78000000eb0084
:102aec0010079800090037001e0090008000780045
:102afc006e00900000804000104078008afe0700b5
:102b0c001e0090000000e800100798001e009000c6
:102b1c009e0f5000f4ff35000080fa000000060004
:102b2c000400fa00000f780011079800c0c7b3002a
:102b3c007dfe070080c1b3007bfe07001e007800fd
:102b4c0079fe0700c0c7b30077fe070090c1b30041
:102b5c0075fe07001e00900073fe07000080fa004f
:102b6c00000006000400fa00100798001e009000f8
:102b7c00e80f50000300340080002000100798007c
:102b8c000c0037001e0090000000e00003003c0029
:102b9c001000200010079800060037001e0090005f
:102bac004300dd00680f50009e00780010002000ec
:102bbc00dbff07000080fa00000006000400fa00aa
:102bcc00204798002e409000e14f50000300320047
:102bdc00104080000000e8001040880080c1b30065
:102bec0075fe070020c4b3004ffe070090c1b30070
:102bfc0071fe070080c0b3004bfe07001040800040
:102c0c00801f7800a0242900801f7800bff60700e1
:102c1c00e4875700000f7800c082200072f607008e
:102c2c001e0078008000eb006011b80004002b003f
:102c3c0015b720006033b800aefc0700843e2000be
:102c4c00050020006033b8003bfd07000000be000b
:102c5c0008f607002e409000e14f500001003a00aa
:102c6c000228ef002e409000b30107000080fa000c
:102c7c00000006001001fa000000eb00100798009d
:102c8c000000eb00200798000000eb0030079800d4
:102c9c0000c0eb00004f980000000000e010200086
:102cac000e004000b6010700004f98000e4890003f
:102cbc00e14f4000f9ff32000068ef00803e200039
:102ccc004c02070004003700e01020000e0040000a
:102cdc00ab010700004f980000c8bf000004e000e3
:102cec0006003a006e4892000004e000f6ff3a003d
:102cfc000e489000e14f4000f3ff320000c8bf00c7
:102d0c000004e000030032000040eb00abff0700c2
:102d1c00d40037000e489000e14f400003003d0006
:102d2c000040eb00a5ff0700ce0037000000eb00d1
:102d3c00000f78001b0037000000000000c8bf0027
:102d4c000004e00007003a00e01020000e004000f4
:102d5c008b010700004f98000e489000e14f400097
:102d6c00f6ff320000c8bf000004e000060032008d
:102d7c000e4890000004e000030032000040eb001d
:102d8c008eff0700b70037002e009000c800dd0052
:102d9c006e4892000080fb00010070002007980034
:102dac001e0fe8001e007800e10f5000e2ff340017
:102dbc000000eb00000f78001b0037000000000043
:102dcc0000c8bf000004e00007003a00e01020003b
:102ddc000e0040006a010700004f98000e4890005a
:102dec00e14f4000f6ff320000c8bf000004e000d5
:102dfc00060032000e4890000004e0000300320090
:102e0c000040eb006dff0700960037001e0090009d
:102e1c00c800dd006e4892000080fb0001007000cd
:102e2c00100798001e0fe8001e0078000000e0005c
:102e3c00e2ff34000000eb00000f780013003700b5
:102e4c000000000000c8bf000004e00008003a00c9
:102e5c001e007800ee00470000804000480107008b
:102e6c00004f98000e489000e14f4000f5ff3200f3
:102e7c0000c8bf000004e000030032000040eb007b
:102e8c004eff0700770037001e0fe8009e00780009
:102e9c001e009000808f5000e9ff39006e00470043
:102eac001e0040008040eb000148780005e1a900bd
:102ebc000000eb00000f7800080037006e004700a0
:102ecc001e00400010407800804078003e009000ca
:102edc00a8010700300798001e0fe8009e0078003c
:102eec001e009000808f5000f4ff3900ae0090005f
:102efc003e009000808f5000030032000040eb0039
:102f0c002eff07005700370080c1b300aafd070051
:102f1c000040eb0084fd070090c1b300a6fd070044
:102f2c0000c1b30080fd0700be009000811f780037
:102f3c00e0242900801f7800f4f50700e48757008f
:102f4c0050079800c0822000a7f507005e00900093
:102f5c008000eb006011b80004002b0015b72000b6
:102f6c006033b800e3fb0700843e2000050020001e
:102f7c006033b80070fc07000000be003df5070090
:102f8c0080c1b3008cfd07000040eb0066fd07001c
:102f9c0090c1b30088fd070080c1b30062fd07003b
:102fac006e004700801f780080252900801f780064
:102fbc00d6f50700e487570060079800c082200010
:102fcc0089f507006e0090008000eb006011b800de
:102fdc0004002b0015b720006033b800c5fb0700b8
:102fec00843e2000050020006033b80052fc07002e
:102ffc000000be001ff507009e0090008006200018
:10300c00808f500015003e001e009000004078009c
:10301c0091c6b30080c05000c088200054fd07004a
:10302c00910620001e009000008050008000eb00f4
:10303c006011b80004002800a56120006033b800be
:10304c00acfb0700843e2000050020006033b80074
:10305c0039fc07000000be0006f5070010c0b300e5
:10306c00d6fe07000080fa00000006000400fa00fb
:10307c008001eb000001eb00005822000100200051
:10308c007b0007009206200001022000c08820006f
:10309c00a6f5070000002a0061182000f5f40700cf
:1030ac0010002000b049880015fd07000040eb001f
:1030bc0041fd070080c1b3003ffd07000040eb005d
:1030cc0019fd070090c1b3003bfd07000040eb0069
:1030dc0015fd0700b0252900801f78008bf507002f
:1030ec008f87e900000f7800c08220003ef50700b2
:1030fc001e0078008000eb006011b80004002b006b
:10310c0015b720006033b8007afb0700843e20001e
:10311c00050020006033b80007fc07000000be006b
:10312c00d4f4070080c1b30023fd07000040eb007e
:10313c00fdfc070090c1b3001ffd070080c0b30069
:10314c00f9fc070010272900801f78006ff5070095
:10315c008f87e90010079800c082200022f5070035
:10316c001e0090008000eb006011b80004002b00e2
:10317c0015b720006033b8005efb0700843e2000ca
:10318c00050020006033b800ebfb07000000be0018
:10319c00b8f40700803e20001601070005e1a900e5
:1031ac00b4fe0700feff37000800fa00008fbe00d7
:1031bc00220798003307980021e2a9009560a90026
:1031cc009580a9008560a9008580a900de42a80031
:1031dc00de62a9003e0090000000e0000200320018
:1031ec00d3c2a800d3e2a9001e01be0000502300e8
:1031fc00c10020005cfc0700000078000000e90022
:10320c00401188002022ef002062a90021e2a800d2
:10321c003e0090000000e000070032002162a80090
:10322c0001118000f0cf2f00008060000090a00002
:10323c0000118800050037002162a90001118000ef
:10324c00f0cf2f0000806000001188002e0090004d
:10325c00e700600000118000010070000011880080
:10326c002222ef002342a8000080fa000000060092
:10327c000800fa00008fbe00220798003307980060
:10328c0031e2a90097c0a90097e0a90087c0a90066
:10329c0087e0a900de82a800dea2a9003e00900013
:1032ac000000e00002003200df82a800dfa2a900cb
:1032bc001e01be0000502300c10020002afc0700a4
:1032cc00000078000000e900c01188003022ef00f7
:1032dc003062a90031e2a8003e0090000000e0003e
:1032ec00070032003162a80081118000f0cf2f005e
:1032fc00008060000090a00080118800050037005d
:10330c003162a90081118000f0cf2f000080600095
:10331c00801188002e009000e70060008011800072
:10332c0001007000801188003222ef003342a800a7
:10333c000080fa00000006000200fa00004f78003e
:10334c00000000009111800000202000008060002f
:10335c000000e000fbff3a001e00fb00a0118800fb
:10336c00000000009111800000102000008060001f
:10337c000000e000fbff32000080fa0000000600b5
:10338c000200fa00000f78009011800062006000cb
:10339c000000e000030032003222a900e0cfb300ad
:1033ac000e00370090118000610060000000e0000a
:1033bc0006003200b0118000804078001e007800ba
:1033cc00014878000040eb00040037001e00780034
:1033dc008040eb000148780000c0eb000080fa0050
:0433ec0000000600d7
:020000040000fa
:1033f0008c0800006a0000000000000000080000c7
:103400000400000000000000360900000200000077
:103410000200000001000000040800008800000015
:103420000200000001000000002a08002b082a000a
:10343000082a08002a082a00081a080000000000cc
:10344000000000000000000000000000000000007c
:10345000000000000000000000020800010152000e
:10346000085308005208520008520800520842004f
:103470000800000000000000000000000000000044
:10348000000000000000000000000000000002003a
:10349000080202007a087b00087a08007a087a009d
:1034a000087a08006a080000000000000000000020
:1034b000000000000000000000000000000000000c
:1034c0000000000004082c00085408000000000060
:1034d00000000000000000000000000018090000cb
:1034e0001a00000002000000686a6c00747a4c0048
:1034f00000000100000200000400080000100000ad
:10350000000020002b2d23003000000038090000af
:103510000200000002000000040000003209000068
:1035200004000000000000003a0900000200000052
:1035300000000000f6080000220000000200000069
:1035400030313200333435003637380039414200eb
:1035500043444500460030003132330034353600f4
:10356000373839006162630064656600000000005e
:103570003c09000002000000000000000000000004
:020000040000fa
:103580000600fa0010079800414798004e4090004e
:103590000080fb009e0090000080680010079800eb
:1035a0000000eb00000f78000f0037001e009000b5
:1035b00061006000004078000004e0000600320076
:1035c0001e0090008000d10010002a0000806800da
:1035d00010079800030037001e0090000000d10083
:1035e000100798001e0fe8001e007800e70f50003b
:1035f000eeff34001e0090000080fa00000006007c
:103600000400fa00100798009e009000200320009c
:103610000088b90000007800000f780005e1a900db
:103620000421a90004c1a900210880000003200092
:1036300001007000200888000021ef009e00780043
:103640001108880021058000f0ff2800008060003c
:1036500000c0a000200588008460a9009460a80034
:0c36600005e1a8000080fa000000060050
:020000040000fa
:0200000401f009
:04000800ffff0000f6
:020000040000fa
:0200000401f009
:04000c00fbff0000f6
:020000040000fa
:0200000401f009
:04001000f9ff0000f4
:020000040000fa
:0200000401f009
:040014007fff00006a
:00000001FF
