:020000040000fa
:080000000002040000000000f2
:020000040000fa
:04000800e40200000e
:020000040000fa
:04000c00e40200000a
:020000040000fa
:04001000e402000006
:020000040000fa
:04001400e402000002
:020000040000fa
:04001800e4020000fe
:020000040000fa
:04001c00e4020000fa
:020000040000fa
:04002000e4020000f6
:020000040000fa
:04002400e4020000f2
:020000040000fa
:04002800e4020000ee
:020000040000fa
:04002c00e4020000ea
:020000040000fa
:04003000e4020000e6
:020000040000fa
:04003400e4020000e2
:020000040000fa
:04003800e4020000de
:020000040000fa
:04003c00e4020000da
:020000040000fa
:04004000e4020000d6
:020000040000fa
:04004400e4020000d2
:020000040000fa
:04004800e4020000ce
:020000040000fa
:04004c00e4020000ca
:020000040000fa
:04005000e4020000c6
:020000040000fa
:04005400e4020000c2
:020000040000fa
:04005800e4020000be
:020000040000fa
:04005c00e4020000ba
:020000040000fa
:04006000e4020000b6
:020000040000fa
:04006400e4020000b2
:020000040000fa
:04006800e4020000ae
:020000040000fa
:04006c00e4020000aa
:020000040000fa
:04007000e4020000a6
:020000040000fa
:04007400e4020000a2
:020000040000fa
:04007800e40200009e
:020000040000fa
:04007c00e40200009a
:020000040000fa
:04008000e402000096
:020000040000fa
:04008400e402000092
:020000040000fa
:04008800e40200008e
:020000040000fa
:04008c00e40200008a
:020000040000fa
:04009000e402000086
:020000040000fa
:04009400e402000082
:020000040000fa
:04009800e40200007e
:020000040000fa
:04009c00e40200007a
:020000040000fa
:0400a000e402000076
:020000040000fa
:0400a400e402000072
:020000040000fa
:0400a800e40200006e
:020000040000fa
:0400ac00e40200006a
:020000040000fa
:0400b000e402000066
:020000040000fa
:0400b400e402000062
:020000040000fa
:0400b800e40200005e
:020000040000fa
:0400bc00e40200005a
:020000040000fa
:0400c000e402000056
:020000040000fa
:0400c400e402000052
:020000040000fa
:0400c800e40200004e
:020000040000fa
:0400cc00e40200004a
:020000040000fa
:0400d000e402000046
:020000040000fa
:0400d400e402000042
:020000040000fa
:0400d800e40200003e
:020000040000fa
:0400dc00e40200003a
:020000040000fa
:0400e000e402000036
:020000040000fa
:0400e400e402000032
:020000040000fa
:0400e800e40200002e
:020000040000fa
:0400ec00e40200002a
:020000040000fa
:0400f000e402000026
:020000040000fa
:0400f400e402000022
:020000040000fa
:0400f800e40200001e
:020000040000fa
:0400fc00e40200001a
:020000040000fa
:04010000e402000015
:020000040000fa
:04010400e402000011
:020000040000fa
:04010800e40200000d
:020000040000fa
:04010c00e402000009
:020000040000fa
:04011000e402000005
:020000040000fa
:04011400e402000001
:020000040000fa
:04011800e4020000fd
:020000040000fa
:04011c00e4020000f9
:020000040000fa
:04012000e4020000f5
:020000040000fa
:04012400e4020000f1
:020000040000fa
:04012800e4020000ed
:020000040000fa
:04012c00e4020000e9
:020000040000fa
:04013000e4020000e5
:020000040000fa
:04013400e4020000e1
:020000040000fa
:04013800e4020000dd
:020000040000fa
:04013c00e4020000d9
:020000040000fa
:04014000e4020000d5
:020000040000fa
:04014400e4020000d1
:020000040000fa
:04020800e40200000c
:020000040000fa
:04020c00e402000008
:020000040000fa
:04021000e402000004
:020000040000fa
:04021400e402000000
:020000040000fa
:04021800e4020000fc
:020000040000fa
:04021c00e4020000f8
:020000040000fa
:04022000e4020000f4
:020000040000fa
:04022400e4020000f0
:020000040000fa
:04022800e4020000ec
:020000040000fa
:04022c00e4020000e8
:020000040000fa
:04023000e4020000e4
:020000040000fa
:04023400e4020000e0
:020000040000fa
:04023800e4020000dc
:020000040000fa
:04023c00e4020000d8
:020000040000fa
:04024000e4020000d4
:020000040000fa
:04024400e4020000d0
:020000040000fa
:04024800e4020000cc
:020000040000fa
:04024c00e4020000c8
:020000040000fa
:04025000e4020000c4
:020000040000fa
:04025400e4020000c0
:020000040000fa
:04025800e4020000bc
:020000040000fa
:04025c00e4020000b8
:020000040000fa
:04026000e4020000b4
:020000040000fa
:04026400e4020000b0
:020000040000fa
:04026800e4020000ac
:020000040000fa
:04026c00e4020000a8
:020000040000fa
:04027000e4020000a4
:020000040000fa
:04027400e4020000a0
:020000040000fa
:04027800e40200009c
:020000040000fa
:04027c00e402000098
:020000040000fa
:04028000e402000094
:020000040000fa
:04028400e402000090
:020000040000fa
:04028800e40200008c
:020000040000fa
:04028c00e402000088
:020000040000fa
:04029000e402000084
:020000040000fa
:04029400e402000080
:020000040000fa
:04029800e40200007c
:020000040000fa
:04029c00e402000078
:020000040000fa
:0402a000e402000074
:020000040000fa
:0402a400e402000070
:020000040000fa
:0402a800e40200006c
:020000040000fa
:0402ac00e402000068
:020000040000fa
:0402b000e402000064
:020000040000fa
:0402b400e402000060
:020000040000fa
:0402b800e40200005c
:020000040000fa
:0402bc00e402000058
:020000040000fa
:0402c000e402000054
:020000040000fa
:0402c400e402000050
:020000040000fa
:0402c800e40200004c
:020000040000fa
:0402cc00e402000048
:020000040000fa
:0402d000e402000044
:020000040000fa
:0402d400e402000040
:020000040000fa
:0402d800e40200003c
:020000040000fa
:0402dc00e402000038
:020000040000fa
:0402e000e402000034
:020000040000fa
:0402e400e402000030
:020000040000fa
:0402e800e40200002c
:020000040000fa
:0402ec00e402000028
:020000040000fa
:0402f000e402000024
:020000040000fa
:0402f400e402000020
:020000040000fa
:0402f800e40200001c
:020000040000fa
:0402fc00e402000018
:020000040000fa
:04030000e402000013
:020000040000fa
:04030400e40200000f
:020000040000fa
:04030800e40200000b
:020000040000fa
:04030c00e402000007
:020000040000fa
:04031000e402000003
:020000040000fa
:04031400e4020000ff
:020000040000fa
:04031800e4020000fb
:020000040000fa
:04031c00e4020000f7
:020000040000fa
:04032000e4020000f3
:020000040000fa
:04032400e4020000ef
:020000040000fa
:04032800e4020000eb
:020000040000fa
:04032c00e4020000e7
:020000040000fa
:04033000e4020000e3
:020000040000fa
:04033400e4020000df
:020000040000fa
:04033800e4020000db
:020000040000fa
:04033c00e4020000d7
:020000040000fa
:04034000e4020000d3
:020000040000fa
:04034400e4020000cf
:020000040000fa
:100400000f8b20000eff27000e0188000000000067
:10041000000020000000e000020032000001200087
:10042000200288000e000700a02e210001002000fd
:10043000810f700001003200220007000000200040
:100440000000e00002003200000002000000000096
:100450008e130200000000000040da000000fe00e1
:100460004440a900e00020000000e000030032004a
:1004700000002000a00188004440a8000000060001
:10048000f03fb1000180b10006003500ee03090025
:1004900000000000403fb1000180b100fbff3d00c3
:1004a0001000b000203fb0000200350000800900bd
:1004b00000000000000006008a1f78008b1f7800f3
:1004c0000000060091018800800478000000eb0025
:1004d0001a003700e284440032a0b4009905ba0043
:1004e000e284440032a0b4009906ba00e2844400d9
:1004f00032a0b4000006eb00476fde00fd07b2003b
:10050000636ce10003003a00ebff07000000eb0022
:100510000a003700606ce10004003a00005deb0067
:100520008b05e900fdff3e00040037006168e10033
:10053000010032000086eb000b00070019c7ba006b
:100540001905ba000e04e00003003a000a00e000ba
:10055000e0ff3a0000000600fe07b2009e0188009e
:100560008a047800f5ff3700395dba008b05e90091
:100570000c003200295dba008b05e900080032004a
:100580000c00e00003003a00e284440032a0b40012
:10059000f5ff370019ddba008b05e900faff3a00d4
:1005a0008904e800e184440032a0b40000000600a1
:1005b000e8020400000000008c09040000000000b4
:1005c00000000400000000000040da000000fe000f
:1005d000889fbe0000047800010078008204780043
:1005e0008801780009017800110020004900070007
:1005f000890f5000010032000004eb000800780071
:100600004f04be00000006000000fa00e881570019
:100610004fb99700a1822000802e20009100070092
:100620000080fa0000000600889fbe008a1f780044
:10063000000478000800e0000d003a0088872000e0
:10064000700544008004eb00580078000000e000d2
:1006500004003200f4ff07000000e00001003d004c
:100660008084eb008a0f5400f7ff3a002500370022
:1006700000002200180060008004eb00210032001e
:10068000a80490000f003700090151003840900085
:100690000000fb00890078007a0307000000e000fa
:1006a00007003c0028009000400498006004980077
:1006b000500c98001890a0008084eb0011003700c7
:1006c0008084440048019000828f5400eeff39007e
:1006d00028009000400498009800780002c0200094
:1006e0000281600001003a003800900001e8a30098
:1006f000020032006004980001003700500c98009e
:100700008004eb00090078004f0578004f04be001c
:1007100000000600889fbe008a9fbe008c9fbe001e
:100720008e1f78000006780001047800020078002f
:10073000830478000881b900020778000200e00015
:10074000420032000800e0004100320082057800db
:10075000c900900069009000808f500004003900ab
:1007600009007800f10007000000e00029003500d2
:1007700000402000190060000a0032000b017800e0
:10078000a10020000c0078002f01070080067800ef
:100790000d00e00006003200610516000a854600e3
:1007a000040037000b0578008006eb0001003700dd
:1007b0000b05780049009000e9009000808050000f
:1007c0008a8f500002003100010578008006eb009e
:1007d0000a0178008c007800250107008a85550001
:1007e000490090000a004000c00498000d00e0009d
:1007f00004003200090078008bff07000000e000d1
:1008000004003a000b00e000020032000a06460035
:10081000cfff370000802000190060000200320086
:100820000900780080ff070000c020001900600068
:100830000200320049009000e00498008b05570048
:10084000110009008885d800010037000000eb0086
:100850004f0778004f06be004f05be004f04be0094
:10086000000006006200fa00889fbe008a1f780020
:100870000005780081047800020478008300780085
:1008800080f92f000f004000000107009a979f0099
:10089000a9979f000000eb00b09f9f001885fb0008
:1008a0008a04fb000a05ea004f55de0050022000d2
:1008b000808f54000d003200e10f55000b003a000c
:1008c0000a017800880078002f9097009f91970088
:1008d00003000100a0979f000000e0008e0032009e
:1008e0003f9897000000e800b09f9f000a04440072
:1008f00050022000808f5400040032000900e00004
:10090000e6ff3a003f989700840037000000eb00b4
:10091000909f9f00809f9f00f0979f00e0979f000f
:10092000d0979f00c0979f0007003700e189200003
:100930000100500000004000218920006100780083
:10094000df98970001007000d09f9f008804780016
:1009500009047800384578008a00fb00e08920000f
:10096000cc0007000000e000f0ff3a00a1c2b30095
:10097000814f55000e003a00cf8897000180e900b2
:10098000c08f9f0010007800c09f9f000000e00013
:1009900005003d000000ea00c09f9f005f9897009f
:1009a0000020a000d09f9f000904e8000f0037003e
:1009b000c09f9f000000eb0005003700f2ff2700fa
:1009c000820f5000020032006a01b900028040002c
:1009d0000904780088047800b900fb000103b10025
:1009e000e98f5000f5ff3600c09f9f00e0c2b300c2
:1009f000984f1000020032000080eb001900370011
:100a0000a0c2b300d84f100007003a00cf8897006b
:100a10000180e900c08f9f0010007800a09f9f0018
:100a20000804e800100037000000eb00a09f9f00c2
:100a30008800780005003700f3ff2700830f50007f
:100a4000020032006a02b90004004100010478008b
:100a5000880078003101fb000203b100e90f51006a
:100a6000f5ff3600a09f9f00984478008900fb00a6
:100a7000a0882000870007000000e000020032008c
:100a80000804e800010037008044eb00c97f9f00a4
:100a900080c6b30080cf540004003a0098cf140001
:100aa0000a003a006640500006003700c0c6b30096
:100ab00080cf540005003a0098cf140003003a009c
:100ac00065404000c07f9f000804e8001801fb005b
:100ad000e3fb2f008f81410081f92f008f804000c0
:100ae000a0f92f000f004000760007000000e00092
:100af00009003a00e1fb2f008f804000a0f92f0091
:100b00000f0040009e0007000000e00002003500da
:100b10000804e80061ff37000080eb004f05780013
:100b20004f04be000080fa0000000600889fbe004f
:100b30008a1f780000047800c800900068019000c7
:100b40000000eb00828f50003c0039001800780054
:100b50002200290002016000e20f5100070032006c
:100b6000012024000000e00001003d0001202000e1
:100b7000008c70000080eb0030003700020026007f
:100b800002006000820f500009003a003800900017
:100b9000808f50000600390008007800a2fe070090
:100ba000800078000080eb000100e00023003a00a4
:100bb0001805780000c020000000650018003a0009
:100bc000a80490006002200008004000808f5400bc
:100bd00013003a000020200058010700200498006c
:100be0000000e00005003a0029049800490498003c
:100bf0008904e80039049800080037000a60a00062
:100c00000a0c7800400498000120200080804000f9
:100c100031049800400c9800500c980073010700b4
:100c2000280090005004980038009000600498005c
:100c300000002600180c70000000eb004f05780043
:100c40004f04be000000060003003700b0cf1000c4
:100c5000050032000201e900800178000200e00096
:100c6000faff3a00000005000300780000000600cb
:100c70008001780002003700b15978000201e900d4
:100c80000200e000fcff3a000000060001087800c6
:100c900000000600020037000304e00006003200f6
:100ca0000001780002007800b041780081cf510047
:100cb000f9ff3a00010037000001eb000200780064
:100cc00000000600889fbe008a1f7800000478009c
:100cd00030c5b300804f51000800320030c7b30068
:100ce000804f51000500320051c2b30078009000df
:100cf000814f510017003a00140037001180e900bd
:100d000080087800100578006a049800d80c9000dc
:100d10000900e00004003d000a0078008901070096
:100d20008004780007003700090178008000eb009c
:100d30000a007800c4ff07000000e0000100320054
:100d40008a045000190c980009003700827178005d
:100d500005003700808141000204e00001003a00f4
:100d600001417800824978000000e8007004980092
:100d70000000eb004f0578004f04be0000000600a5
:100d80000400fa00889fbe008a9fbe008c1f780076
:100d90000004780001067800f80d900078009000bb
:100da000808555000808900080855500180890003f
:100db00080855500280890008085550038089000ef
:100dc000808555004808900080855500000222006b
:100dd00090bf9f0000032300a0bf9f000810900059
:100de0000028a30015003a000b00e00013003400b7
:100df0000b0578008a047800e20f550001003600e8
:100e000029002000c801900009017800ee805700f9
:100e10005800900003000100500498000000e0001a
:100e20008c0032006808900009004000600c9800b7
:100e3000090555004240a900eeff3c0078019000f2
:100e40000200e0000c003400c80190008c00780023
:100e50005800900003000100500498008080eb00cf
:100e60000000e0007c003200e8089000780090006c
:100e700000804000600c9800880c90000900e000a1
:100e80001100340009057800e28f5400010036009b
:100e90002a002000c80190000a017800ec80570069
:100ea0005800900003000100500498000000e0008a
:100eb00068003200680890000a004000600c98004a
:100ec0008a845400edff3700180990000200e0000a
:100ed0000c003400c8019000e80090005800900019
:100ee00003000100500498008080eb000000e00047
:100ef00059003200e8089000180890000080400077
:100f0000600c9800a80c90000900e000110034006b
:100f100009057800e28f5400010036002a00200005
:100f2000c80190000a017800ec805700580090003a
:100f300003000100500498000000e000450032006a
:100f4000680890000a004000600c98008a845400f1
:100f5000edff3700380990000200e0000e00340079
:100f6000e80090001808900080804000c8019000c0
:100f70005800900003000100500498008080eb00ae
:100f80000000e00034003200e808900038089000cb
:100f900000804000600c9800c80c90000900e00040
:100fa0001100340009057800e28f5400010036007a
:100fb0002a002000c80190000a017800ec80570048
:100fc0005800900003000100500498000000e00069
:100fd00020003200680890000a004000600c980071
:100fe0008a845400edff3700081090008000eb0069
:100ff0000028a300180032000b00e00016003400a7
:101000008b04780009057800e28f54000100360057
:101010002a002000c80190000a017800ee805700e5
:101020005800900003000100500498000000e00008
:1010300008003200680890000a004000600c980028
:101040008a8454004240a900eeff3c008000eb007f
:10105000010037008080eb00010078004f06780027
:101060004f05be004f04be000080fa0000000600dd
:10107000889fbe0000047800214580000100e00048
:1010800002003200010078000d0037003145800079
:10109000608a200004003700910f540025003600bc
:1010a0000180e800910090000100e000faff3a00a2
:1010b00010003700920f54001e0036000280e80036
:1010c000100178000200e000faff3a0011017800f8
:1010d00031458000608a200004003700910f5400e1
:1010e000140036000180e80091009000828f5000cb
:1010f000faff3a0059458000888f54000100310002
:101100008804780009007800940007000000e000df
:1011100004003a00888f5400050032008904d10091
:10112000f5ff37000918780096000700d2ff370056
:101130000000eb004f04be0000000600881f78008e
:10114000630440000800a1008000eb00800f540001
:1011500021003600e30f540001003e00480020004b
:1011600008007800c2ff07008000eb000000e000ec
:1011700019003200900078009101780064815100dc
:10118000880f51000300310011019000020878001f
:1011900007003700088140000208780091019000a4
:1011a00013019800100178001109140088087800d4
:1011b000100178000000eb000200e00004003200a3
:1011c000920190000300e000010032000280e8007c
:1011d000204588008180e800010078004f047800f5
:1011e00000000600c098200098003700881f780093
:1011f000c88a20001804e00003003a00f9ff070045
:1012000020c0b300004c78004f04780000000600b6
:10121000889fbe00000478000800780002fd0700e7
:1012200080047800000420001800600002003200f2
:1012300028009000530007000000eb0020049800f5
:10124000384090000004e000050035000000fb007d
:10125000d00007000000e000010032008084eb00b5
:10126000181090000000e00008003200d4000700d1
:101270000000e000010032008084eb0018109000b4
:10128000400007000000eb00101498000008200048
:10129000180060000f003200818720000000eb0082
:1012a000d10f140005003a0000004000a187200083
:1012b000008040000008eb00030037000000e80059
:1012c000e80f5000f6ff3a00080078002d000700f4
:1012d0000e003700000c780000c0eb00304498008e
:1012e000600220000800400020049800400498009c
:1012f00050049800400c980060049800500c98002e
:101300007004980076004400000c980009007800f2
:101310004f04be0000000600889fbe00a888200081
:10132000f0045400480078000000e00001003200a2
:10133000b7ff0700890f5400faff3a004f04be00c0
:101340000000060080007800010178003104e00010
:10135000fdff3a0000005100000006008000780008
:101360000000eb000100e0000500340001007800ff
:101370009c000700e10f400001003a000000eb0074
:10138000000006000000e0002f003200c0017800dd
:10139000e38f51002c0036000308a3002a003a0016
:1013a000314580000100e00002003200810f500052
:1013b0000400310011009800304588001600370005
:1013c00082007800110190000200e000020032006b
:1013d000800f5100faff390011027800848240002a
:1013e000850f500018003900808f520003003a002a
:1013f0008308420001007800070037000200e00087
:101400000300320083014000830f51000e003900b9
:101410001200980090009800900090000100e000f9
:101420000900320010014000828f500006003a008f
:10143000428a20000009eb001001780011084100e9
:1014400091009000110098000000060001002000ab
:101450000100e00008003200010080000100e0000f
:10146000050032008100e900010088008180400011
:101470000200800000b178000000060000c0da0021
:10148000000006000a00fa00e20f500034003e009f
:1014900040458000e10f500003003200e20f500091
:1014a00011003a000c003700032220000300e00086
:1014b00001003a000040da002002e200020035009c
:1014c0002822ef0021e2a8002342ab000d003a00e1
:1014d0002342a8000b003700032320000300e00094
:1014e00001003a000040da003002e200020035005c
:1014f0003822ef0031e2a8003342ab0001003a008d
:101500003342a800820178000b0037003102fb0053
:10151000e10f500004003a002322ab00feff3a0026
:1015200024118800030037003322ab00feff3a008d
:10153000a41188008301e9000300e000f3ff3a00f2
:10154000e10f500003003a002302ab00feff32001f
:101550000b0037003302ab00feff320008003700fb
:1015600033002000b3bf9f00c0bf9f00d1bf9f00ca
:10157000e2bf9f006a805700c0ff07006fb9970065
:10158000020078000080fa000000060000c0da00c7
:10159000000006000a00fa0011002000b1bf9f0001
:1015a000c0bf9f006a805700f8ff07004fb8970040
:1015b0000080fa000000060000c0da00000006000b
:1015c0000a00fa0051002000b1bf9f00c0bf9f0079
:1015d0006a805700f8ff07005fb897000080fa00a4
:1015e00000000600889fbe008004780070458000df
:1015f0000000e00004003a000e0007000084eb0049
:101600000000e00008003500784580000900e00097
:101610000500320009004400060007000000e00059
:1016200001003d000084eb00080078004f04be007c
:1016300000000600800078000100e00003003a008e
:101640000000200070458800000005000080eb00cd
:1016500002002000828f500002003e007145880089
:101660000000eb00000006004f89de0082017800d8
:10167000b50037000001eb00c3003700889fbe00b3
:101680008a9fbe008c1f7800280107002f013300bd
:1016900003866c006450e100240032006420e10005
:1016a000270032006150e100220032006120e10099
:1016b000210032008b854200eb07b1000134b800f5
:1016c000003ab8000804420089844a00013ab80090
:1016d0000030b8008880400009014a00040033004f
:1016e0000000400081804800020149008b05e900ac
:1016f000c909dd00830170000100320013002000e1
:10170000c814de004814dd004709de001200b200f4
:10171000c808de00088470001c01070001f0a10069
:101720000cf0a70001f0a000110137006120e100da
:10173000130132000801be000200be00f7ff3700af
:101740006150e100fcff3a000d01370003f0a200f8
:10175000889fbe008a9fbe008c1f7800f3000700a0
:10176000fa0033006450e1004f0032006420e100d1
:101770005200320003826c0007003b000905d000d4
:101780000306d000820f54000c065d0002003900f1
:101790000200320089017800030678008582550036
:1017a00004003d000003fd008103fd008502ea0006
:1017b0008b854200840f720002003b006000100025
:1017c000e08018006011b8000005eb007a28e10005
:1017d0000a00390006007800c75ddd00f707b20097
:1017e000878075002d003700828171000a01780022
:1017f000610560008180d1000080d3008502e9008e
:10180000f9ff3b00060440008784480002003b00cb
:1018100060041400e0841c000988a3000700320063
:101820008a81710082817100610164008904d100a4
:101830000884d3008b05e800170037000978a3005f
:1018400013003a000b00e000130034008b05e900a0
:101850000804440089844c000a4474000978a300f9
:101860000d003a000b00e000070034008b05e90092
:101870000804440089844c0001003a000b00200059
:101880000978a300f7ff32000001eb0002003700e7
:10189000828171000a017800bc0007000cf0a700eb
:1018a00001f0a000b20037006420e10002003a001d
:1018b000838f6c00b20033000801be000200be003e
:1018c000ab0037000001be00d60007000470a7007f
:1018d00003f0a1006509b100160032000d003500cb
:1018e0006828e10006003500f0ff2f00f1ff270017
:1018f0000300e00013003b00010028000000050089
:1019000000004000818048008502e900fcff3a00a9
:1019100008003700f88f420002003c008000eb0016
:10192000000005008100d1000080d3008502e8009e
:10193000fcff3a000300e00002003b0060001000e2
:10194000e080180000000600881f7800030478007b
:101950000300e00007003d0060001000e080180078
:1019600060011900e081190002003b0001f02d0028
:1019700003003700c000070008f0a70001f0a00036
:101980004f04780000000600889fbe008a9fbe00ba
:101990008c9fbe00820578000004be00a1000700f5
:1019a0000800be006420e1000700390002003a0090
:1019b000f1ff2700f0ff2f000160a00012022000bd
:1019c00002408800550037006120e10003003a0022
:1019d0000b00a70001f823005000370001f0a10020
:1019e0000200210093642400d20007000800be001a
:1019f00004003500b2fd2000930c2400cf00070046
:101a00000004be000005eb000b00a6004f0dde0039
:101a100001f0a1000004be0032982f0023ea230049
:101a200016ff07000001eb0003f023000b00a700e6
:101a300003f8230046ff0700a2ff07000000a700ed
:101a40000a00a20008ff07000b00e00003003200bc
:101a50000200200003f023003cff070001f0a20079
:101a60000006be00020020009304240003ff0700cc
:101a70000801be0036ff0700809fbe000c00be00bc
:101a800022a22a00d3a72300fcfe07004f01be00bc
:101a90002fff07000004be0001f0a100020020009b
:101aa00003982300a30007000800be0019003500ba
:101ab0000001be00f1fe07000006be00b2c529000d
:101ac000e3622300edfe070022222b00f3942b009b
:101ad0001fff07000c01be00e8fe0700e2732800ac
:101ae00083c023001aff07000c01be00e3fe0700bd
:101af00042aa2a00a3e22b0015ff07000c01be003a
:101b0000defe07000801be00dcfe07000801be0083
:101b10000fff07000a00a70001f0a2004f06be0059
:101b20004f05be004f04be00000006000004be00ca
:101b30003c0007000003be000405be000200be001a
:101b400038000700844f7500000006000200be0048
:101b50006450e100050036006420e1000200360018
:101b60000968a30001003a000800be000160a0005f
:101b70004f0678004f05be004f04be00000006006f
:101b8000f0ff2f00f1ff2700f9ff37008100200050
:101b9000618055000b003d000b00200061fe2f000e
:101ba0000100e1001d0034008281710061016400c8
:101bb0008904d1000884d3000000e800faff3a004d
:101bc00071002000610064000300700002006000ea
:101bd0000900320061044400e0844c000988a5003b
:101be000050032008b05e8006808e10002003a00b9
:101bf0008904d1000884d300f20f20000258e100cc
:101c000005003d00c75ddd00f907b2008980750061
:101c100008007800000006000bf827008b00780011
:101c200000000500c70ade00f107b200f50fb200a0
:101c300008003200e1cf4200020032000170a00033
:101c400024000500810f7000010032000408050027
:101c500044000500810f700002003a0014000500e6
:101c60008502e9000000400081c04800fcff3b0005
:101c70000170a00024000500889fbe008a9fbe005e
:101c8000008270000402710004827100260032009c
:101c90000004be000200be006011b8006b09200005
:101ca000950220000182cf000a0039000541b100f1
:101cb0000082cf00070039000541b1000982cf0042
:101cc000040039000541b1000882cf00010039004d
:101cd0000541b10005425200120032000a003b00eb
:101ce00082817100610164008100d1000080d30015
:101cf0008984d3000884d3008b05e8000442e800ff
:101d0000f7ff3a00070037000804440089844c00bc
:101d100000004800818048008b05e9000442e9008a
:101d2000f9ff3a0099ff07004f05be004f04be00bf
:101d3000000006001400200002003700040020000c
:101d40001b003700889fbe008a9fbe00841f78005a
:101d500076ff07004f00780011003300f0ff2f00de
:101d6000838f6c0006003b00040565000a00a70095
:101d70000800370009f0a600100020000800370016
:101d8000820f5400838f5c00030039001000200094
:101d900001003e000000200009f0a7000000ea005a
:101da0004f05be004f04be000000e000000006002a
:101db000889fbe008a9fbe008c1f78004f26dd00e2
:101dc0005aff070061ff33006120e1004300320049
:101dd0006250e10041003e003e0039006420e10015
:101de0003c003200058255000f003b000402e80071
:101df00038003a00800f5300818f5b0035003400bb
:101e00000800be0003f0a10001f0a60003f0a0004e
:101e10000cf0a7004efe070055ff370006034300f5
:101e200087834b000c4646000005530081855b000c
:101e3000020033000a03be000c00a0000402e90007
:101e4000f6ff3b00850578000602430087824b00c1
:101e500004003a006000b80009f0a70001f0a000fb
:101e600043ff37000002520081825a000704e0005d
:101e7000040033000603430087834b008b05e90011
:101e8000faff3700090578000604be000203be0011
:101e90006011b8003dff0700e00f5200e08f5a00cc
:101ea0000700350002003c000c08a30004003200cb
:101eb0000601be0003f0a0000cf0a70024fe0700fe
:101ec0000a85680001f0a1000af0a70001f0a00057
:101ed00027ff37000800be0025ff37001002200052
:101ee0000cf0a6000040880025ff37004211880052
:0c1ef0000011880011118800000006009d
:020000040000fa
:101efc00486500006c6c00006f200000576f0000fc
:0c1f0c00726c0000642100000000000066
:020000040000fa
:101f18000000fa00620020000140200000002800b4
:101f2800f0ff070000802e003100200052f9070062
:101f38000080fa00000006000200fa00004f780056
:101f4800010037000000000023c2bf0062406000ab
:101f58000004e000fbff3a001e80fb00201188000f
:101f6800010037000000000023c2bf00614060008c
:101f78000004e000fbff32000080fa0000000600c9
:101f88000600fa0010079800414798000040eb004f
:101f9800004f7800070037001e80fb0080007800a3
:101fa8001e0090000080400010407800e2ff07000b
:101fb8001e4fe8004e4090009e4f1000f6ff39007b
:101fc8000080fa00000006000200fa00004f7800c6
:101fd800c0c7b300d8ff07001e407800d6ff07002f
:101fe8000080fa00000006000000fa00c0c7b30035
:101ff800d1ff07000040eb00cfff07000080fa0088
:10200800000006000200fa00000f7800c0c7b30005
:10201800c9ff070010c0b300c7ff07001e00780003
:10202800c5ff07000080fa00000006000200fa0061
:10203800000f7800c0c7b300bfff070020c0b3007f
:10204800bdff07001e007800bbff07000080fa00f4
:10205800000006000800fa00000f78001107980039
:102068002207980033079800c0c7b300b2ff0700e3
:1020780030c0b300b0ff07001e007800aeff0700b5
:102088001e009000acff07002e009000aaff07007a
:102098003e009000a8ff07000080fa00000006003c
:1020a8000000fa00c0c7b300a3ff070040c0b30098
:1020b800a1ff07000080fa00000006000800fa00ef
:1020c800000f78001107980022079800330798003e
:1020d800c0c7b30098ff070050c0b30096ff0700c1
:1020e8001e00780094ff07001e00900092ff070072
:1020f8002e00900090ff07003e0090008eff070022
:102108000080fa00000006000000fa00c0c7b30013
:1021180089ff070060c0b30087ff07000080fa004e
:10212800000006000200fa00000f78001e00e00020
:1021380002003c0010002000000f78006000200022
:102148009e0f10000200340060002000000f78008d
:10215800c0c7b30078ff070070c0b30076ff070060
:102168001e00780074ff07000080fa0000000600d7
:102178000000fa00c0c7b3006fff070080c0b300bb
:102188006dff07000080fa00000006000200fa0058
:10219800000f7800c0c7b30067ff0700a0c0b300f6
:1021a80065ff07001e00780063ff07000080fa0043
:1021b800000006000800fa00000f780011079800d8
:1021c8002207980033079800c0c7b3005aff0700da
:1021d800b0c0b30058ff07001e00780056ff070084
:1021e8001e00900054ff07002e00900052ff0700c9
:1021f8003e00900050ff07000080fa000000060033
:102208000a00fa00000f78001107980022079800ca
:102218003307980044079800c0c7b30046ff07007b
:10222800c0c0b30044ff07001e00780042ff07004b
:102238001e00900040ff07002e0090003eff0700a0
:102248003e0090003cff07004e0090003aff070058
:102258000080fa00000006000a00fa001007980043
:10226800210798003207980043079800c0c7b300b9
:1022780031ff0700d0c0b3002fff07001e009000f9
:102288002dff07002e0090002bff07003e00900056
:1022980029ff07000000eb00000f78000700370057
:1022a8001e007800800078004e00900000804000fa
:1022b8001040780020ff07001e0fe800f001200002
:1022c8009e0f1000f6ff34000080fa0000000600a0
:1022d8000a00fa00000f78001107980022079800fa
:1022e8003307980044079800c0c7b30012ff0700df
:1022f800f0c0b30010ff07001e0078000eff0700b3
:102308001e0090000cff07002e0090000aff070037
:102318003e00900008ff07004e00900006ff0700ef
:102328000080fa00000006000600fa00000f78009e
:102338001107980022079800c0c7b300fefe0700e7
:1023480000c1b300fcfe0700000820009e0f10002b
:102358000300340000c8b300f7fe07000700370089
:102368001e00e00003003d000040eb00f2fe070005
:10237800020037001e007800effe07009e00900064
:1023880000042000808f50000300340000c4b30014
:10239800e9fe0700080037001e0090000000e0007a
:1023a80003003d000040eb00e3fe07000200370099
:1023b8001e009000e0fe07002e009000e10f500084
:1023c800060032002e0090000000e00003003200fa
:1023d80010c0b300d8fe0700020037002e0090009e
:1023e800d5fe07000080fa00000006000a00fa0087
:1023f800000f78001107980022079800330798000b
:10240800044f9800c0c7b300cbfe070020c1b3003b
:10241800c9fe07001e007800c7fe07001e009000d6
:10242800c5fe07002e009000c3fe07003e00900086
:10243800c1fe07000e489000bffe07000080fa00aa
:10244800000006000000fa00c0c7b300bafe07008b
:1024580040c1b300b8fe07000080fa000000060083
:102468000000fa00c0c7b300b3fe070050c1b300b4
:10247800b1fe07000080fa00000006000e00fa0016
:102488001007980021079800320798004307980022
:102498005407980065079800c0c7b300a6fe070058
:1024a80060c1b300a4fe07001e009000a2fe070052
:1024b8002e009000a0fe07003e0090009efe070040
:1024c8004e0090009cfe07005e0090009afe0700f8
:1024d800ce0090005e0090000088b90082002000c5
:1024e800110009000200d800000f78000000eb007e
:1024f80010079800090037001e009000800078003f
:102508006e00900000804000104078008afe0700ae
:102518001e0090000000e800100798001e009000c0
:102528009e0f5000f4ff35000080fa0000000600fe
:102538000400fa00000f780011079800c0c7b30024
:102548007dfe070080c1b3007bfe07001e007800f7
:1025580079fe0700c0c7b30077fe070090c1b3003b
:1025680075fe07001e00900073fe07000080fa0049
:10257800000006000400fa00100798001e009000f2
:10258800e80f500003003400800020001007980076
:102598000c0037001e0090000000e00003003c0023
:1025a8001000200010079800060037001e00900059
:1025b8004300dd00680f50009e00780010002000e6
:0c25c800dbff07000080fa0000000600a6
:020000040000fa
:1025d400a808000002000000020000000100000042
:1025e40000080000020000000000000002080000d3
:1025f400880000000200000001000000002808001c
:1026040029082800082808002808280008180800b5
:1026140000000000000000000000000000000000b6
:10262400000000000000000000000000000208009c
:1026340001015000085108005008500008500800db
:1026440050084000080000000000000000000000e6
:102654000000000000000000000000000000000076
:1026640000000200080202007808790008780800d7
:102674007808780008780800680800000000000066
:102684000000000000000000000000000000000046
:10269400000000000000000002082a0008520800a0
:1026a4000000000000000000000000000000000026
:1026b4008a0800001a00000002000000686a6c002a
:1026c400747a4c00000001000002000004000800bd
:1026d40000100000000020002b2d2300300000001b
:1026e400aa0800000200000002000000040000002c
:1026f400a40800000400000000000000ac08000072
:102704000200000000000000ae080000020000000b
:082714000000000000000000bd
:020000040000fa
:10271c000600fa001000200040458800fbfd070071
:10272c000040eb0027fe070080c1b30025fe070028
:10273c0060c0b300fffd070090c1b30021fe07008d
:10274c0080c0b300fbfd0700e0f72800801f780075
:10275c00aaf707008f87e900a0822000aff70700d7
:10276c0013002000e20120000102200000042000e0
:10277c0037fe07000000eb00000f7800200020005f
:10278c0010079800803e20009e007800808f50003b
:10279c001d0034000000eb00000f78000040eb003f
:1027ac0008fe07001e019000b04721000090b90000
:1027bc00c388de004f90de0000805000cf80de002a
:1027cc00a6fb0700a8fb0700020020000312240050
:1027dc00a7fb070002002000831c2400d9fb070084
:1027ec0035fc070020079800130020002e019000f4
:1027fc00010220000004200015fe07001e009000be
:10280c000000e800100798001e0fe800ddff3700fd
:020000040000fa
:0200000401f009
:04000800ffff0000f6
:020000040000fa
:0200000401f009
:04000c00a30000004d
:020000040000fa
:0200000401f009
:04001000c500000027
:020000040000fa
:0200000401f009
:040014005f00000089
:00000001FF
